:020000040800F2
:100000000080002029220008B9100008BB10000859
:10001000BD100008BF100008C1100008000000005B
:10002000000000000000000000000000C3100008F5
:10003000C510000800000000C7100008C910000823
:100040007922000879220008CD10000879220008E2
:100050007922000879220008D9100008DF10000872
:100060007922000879220008792200087922000804
:10007000792200087922000879220008E51000089A
:1000800079220008792200087922000879220008E4
:1000900079220008792200087922000879220008D4
:1000A00079220008792200087922000879220008C4
:1000B00079220008792200087922000879220008B4
:1000C00079220008792200087922000879220008A4
:1000D00079220008F110000879220008792200082E
:1000E0007922000879220008FD1000087922000812
:1000F0007922000879220008792200087922000874
:1001000079220008792200080911000879220008E4
:100110007922000879220008792200087922000853
:100120007922000879220008792200087922000843
:08013000792200087922000881
:1001400010B5054C237833B9044B13B10448AFF311
:1001500000800123237010BD40010020000000003A
:100160003803010808B5034B1BB103490348AFF33B
:10017000008008BD00000000440100203803010891
:10018000034613F8012B002AFBD1181A01387047D7
:1001900001F0FF01102A2BDB10F0070F08D010F838
:1001A000013B013A8B422DD010F0070F42B3F6D13C
:1001B000F0B441EA012141EA014122F007047FF055
:1001C00000070023F0E80256083C85EA010586EAAC
:1001D000010685FA47F5A3FA87F586FA47F6A5FAE8
:1001E00087F68EB9EED1F0BC01F0FF0102F00702F4
:1001F00032B110F8013B013A83EA010313B1F8D19F
:100200000020704701387047002D06BF354603387F
:10021000073815F0010F07D1013015F4807F02BFB8
:10022000013015F4C03F0130F0BC0138704700BF09
:1002300081F0004102E000BF83F0004330B54FEA97
:1002400041044FEA430594EA050F08BF90EA020F04
:100250001FBF54EA000C55EA020C7FEA645C7FEA97
:10026000655C00F0E2804FEA5454D4EB5555B8BFBA
:100270006D420CDD2C4480EA020281EA030382EA2B
:10028000000083EA010180EA020281EA0303362DBD
:1002900088BF30BD11F0004F4FEA01314FF4801C90
:1002A0004CEA113102D0404261EB410113F0004FA2
:1002B0004FEA03334CEA133302D0524263EB430359
:1002C00094EA050F00F0A780A4F10104D5F1200EF7
:1002D0000DDB02FA0EFC22FA05F2801841F1000152
:1002E00003FA0EF2801843FA05F359410EE0A5F126
:1002F00020050EF1200E012A03FA0EFC28BF4CF057
:10030000020C43FA05F3C01851EBE37101F000450C
:1003100007D54FF0000EDCF1000C7EEB00006EEB19
:100320000101B1F5801F1BD3B1F5001F0CD34908A3
:100330005FEA30004FEA3C0C04F101044FEA4452FA
:1003400012F5800F80F09A80BCF1004F08BF5FEA81
:10035000500C50F1000041EB045141EA050130BD61
:100360005FEA4C0C404141EB0101013C28BFB1F573
:10037000801FE9D291F0000F04BF01460020B1FABE
:1003800081F308BF2033A3F10B03B3F120020CDA91
:100390000C3208DD02F1140CC2F10C0201FA0CF06F
:1003A00021FA02F10CE002F11402D8BFC2F1200CD4
:1003B00001FA02F120FA0CFCDCBF41EA0C0190408A
:1003C000E41AA2BF01EB0451294330BD6FEA0404D3
:1003D0001F3C1CDA0C340EDC04F11404C4F12002BE
:1003E00020FA04F001FA02F340EA030021FA04F3D0
:1003F00045EA030130BDC4F10C04C4F1200220FA27
:1004000002F001FA04F340EA0300294630BD21FA64
:1004100004F0294630BD94F0000F83F4801306BF2A
:1004200081F480110134013D4EE77FEA645C18BF1E
:100430007FEA655C29D094EA050F08BF90EA020FB5
:1004400005D054EA000C04BF1946104630BD91EAAD
:10045000030F1EBF0021002030BD5FEA545C05D1B0
:100460004000494128BF41F0004130BD14F58004EF
:100470003CBF01F5801130BD01F0004545F0FE4163
:1004800041F470014FF0000030BD7FEA645C1ABF98
:10049000194610467FEA655C1CBF0B46024650EACF
:1004A000013406BF52EA033591EA030F41F40021FB
:1004B00030BD00BF90F0000F04BF0021704730B581
:1004C0004FF4806404F132044FF000054FF0000156
:1004D00050E700BF90F0000F04BF0021704730B517
:1004E0004FF4806404F1320410F0004548BF4042EC
:1004F0004FF000013EE700BF42004FEAE2014FEA41
:1005000031014FEA02701FBF12F07F4393F07F4F1B
:1005100081F06051704732F07F4208BF704793F01E
:100520007F4F04BF41F40021704730B54FF4607431
:1005300001F0004521F000411CE700BF50EA010234
:1005400008BF704730B54FF000050AE050EA0102DD
:1005500008BF704730B511F0004502D5404261EB4D
:1005600041014FF4806404F132045FEA915C3FF48E
:10057000D8AE4FF003025FEADC0C18BF03325FEA2B
:10058000DC0C18BF033202EBDC02C2F1200300FADC
:1005900003FC20FA02F001FA03FE40EA0E0021FA01
:1005A00002F11444BDE600BF4FF0FF3C06E000BF7F
:1005B0004FF0010C02E000BF4FF0010C4DF804CDEC
:1005C0004FEA410C7FEA6C5C4FEA430C18BF7FEAAC
:1005D0006C5C1BD001B050EA410C0CBF52EA430CDA
:1005E00091EA030F02BF90EA020F0020704710F15A
:1005F000000F91EA030F58BF994208BF90422CBFE9
:10060000D8176FEAE37040F0010070474FEA410CE1
:100610007FEA6C5C02D150EA013C07D14FEA430CFF
:100620007FEA6C5CD6D152EA033CD3D05DF8040B70
:10063000704700BF8446104662468C4619466346A2
:1006400000E000BF01B5FFF7B7FF002848BF10F179
:10065000000F01BD4DF808EDFFF7F4FF0CBF0120BE
:1006600000205DF808FB00BF4DF808EDFFF7EAFF3A
:1006700034BF012000205DF808FB00BF4DF808EDF5
:10068000FFF7E0FF94BF012000205DF808FB00BFEA
:100690004DF808EDFFF7CEFF94BF012000205DF874
:1006A00008FB00BF4DF808EDFFF7C4FF34BF012081
:1006B00000205DF808FB00BF4FEA410212F500126E
:1006C00015D211D56FF47873B3EB625212D94FEA99
:1006D000C12343F0004343EA505311F0004F23FA83
:1006E00002F018BF404270474FF00000704750EAD8
:1006F000013005D111F0004008BF6FF00040704795
:100700004FF00000704700BF80F0004002E000BFE3
:1007100081F0004142001FBF5FEA410392EA030FEC
:100720007FEA226C7FEA236C6AD04FEA1262D2EB36
:100730001363C1BFD218414048404140B8BF5B423B
:10074000192B88BF704710F0004F40F4000020F0D4
:100750007F4018BF404211F0004F41F4000121F0EA
:100760007F4118BF494292EA030F3FD0A2F1010234
:1007700041FA03FC10EB0C00C3F1200301FA03F172
:1007800000F0004302D5494260EB4000B0F5000F95
:1007900013D3B0F1807F06D340084FEA310102F154
:1007A0000102FE2A51D2B1F1004F40EBC25008BF06
:1007B00020F0010040EA03007047490040EB0000D0
:1007C000013A28BFB0F5000FEDD2B0FA80FCACF1D1
:1007D000080CB2EB0C0200FA0CF0AABF00EBC250FE
:1007E00052421843BCBFD0401843704792F0000FEC
:1007F00081F4000106BF80F400000132013BB5E73F
:100800004FEA41037FEA226C18BF7FEA236C21D0B4
:1008100092EA030F04D092F0000F08BF0846704719
:1008200090EA010F1CBF0020704712F07F4F04D1E7
:10083000400028BF40F00040704712F100723CBFFA
:1008400000F50000704700F0004343F0FE4040F424
:10085000000070477FEA226216BF08467FEA2363E2
:100860000146420206BF5FEA412390EA010F40F4CD
:10087000800070474FF0000304E000BF10F0004319
:1008800048BF40425FEA000C08BF704743F0964300
:1008900001464FF000001CE050EA010208BF70471B
:1008A0004FF000030AE000BF50EA010208BF7047A2
:1008B00011F0004302D5404261EB41015FEA010CB7
:1008C00002BF84460146002043F0B64308BFA3F1AF
:1008D0008053A3F50003BCFA8CF2083AA3EBC25391
:1008E00010DB01FA02FC634400FA02FCC2F12002B0
:1008F000BCF1004F20FA02F243EB020008BF20F0E7
:100900000100704702F1200201FA02FCC2F120024C
:1009100050EA4C0021FA02F243EB020008BF20EA41
:10092000DC7070474FEA4002B2F1FE4F0FD34FF038
:100930009E03B3EB12620DD94FEA002343F000434C
:1009400010F0004F23FA02F018BF404270474FF0FA
:100950000000704712F1610F01D1420205D110F081
:10096000004008BF6FF0004070474FF00000704734
:1009700042000ED2B2F1FE4F0BD34FF09E03B3EB09
:10098000126209D44FEA002343F0004323FA02F035
:1009900070474FF00000704712F1610F01D1420221
:1009A00002D14FF0FF3070474FF00000704700BF9A
:1009B00053B94AB9002908BF00281CBF4FF0FF31C6
:1009C0004FF0FF3000F06CB9ADF1080C6DE904CECA
:1009D00000F006F8DDF804E0DDE9022304B070471A
:1009E0002DE9F047089E0D4604468E46002B40F048
:1009F00082808A42174646D9B2FA82F24AB1C2F1DF
:100A0000200105FA02F320FA01F1974041EA030EB2
:100A100094404FEA1748230CBEFBF8FCB9B208FB20
:100A20001CEE43EA0E430CFB01F098420AD9FB1876
:100A30000CF1FF3580F01681984240F21381ACF141
:100A4000020C3B441B1AA4B2B3FBF8F008FB1033B2
:100A500044EA034400FB01F1A14209D93C1900F129
:100A6000FF3380F00181A14240F2FE8002383C4415
:100A7000641A40EA0C4000211EB1D4400023C6E9AC
:100A80000043BDE8F08702B9FFDEB2FA82F2002A25
:100A90004FD1CB1B4FEA174E1FFA87F80121B3FB4A
:100AA000FEFC250C0EFB1C3345EA034508FB0CF34A
:100AB000AB4207D97D190CF1FF3002D2AB4200F2F4
:100AC000E7808446ED1AA3B2B5FBFEF00EFB10558D
:100AD00043EA054408FB00F8A04507D93C1900F19A
:100AE000FF3302D2A04500F2D7801846A4EB0804D9
:100AF00040EA0C40C0E78B4208D9002E00F0AF80DE
:100B00000021C6E900050846BDE8F087B3FA83F185
:100B100000294BD1AB4202D3824200F2B780841A43
:100B200065EB030301209E46002EAAD0C6E9004EC5
:100B3000A7E7C2F1200C01FA02F3974020FA0CF06B
:100B40004FEA174E21FA0CFC1843BCFBFEF1050CD2
:100B50000EFB11CC1FFA87F845EA0C4501FB08F3A0
:100B6000AB4204FA02F409D97D1901F1FF3C80F08F
:100B70008B80AB4240F2888002393D44EB1A85B24B
:100B8000B3FBFEF00EFB103345EA034500FB08F310
:100B9000AB4207D97D1900F1FF3C71D2AB426FD94E
:100BA00002383D44EB1A40EA014178E7C1F1200CDC
:100BB0008B4022FA0CF71F4320FA0CF405FA01F3DC
:100BC0004FEA174E25FA0CF51C43230CB5FBFEF932
:100BD0001FFA87F80EFB195543EA054509FB08FA89
:100BE000AA4502FA01F200FA01F308D97D1909F1C8
:100BF000FF3047D2AA4545D9A9F102093D44A5EBEA
:100C00000A05A4B2B5FBFEF00EFB105544EA0544FC
:100C100000FB08F8A04507D93C1900F1FF352DD29B
:100C2000A0452BD902383C4440EA0940A4EB080413
:100C3000A0FB02894C45C6464D4619D316D05EB17D
:100C4000B3EB0E0264EB050404FA0CFCCA404CEA58
:100C50000202CC40C6E900240021BDE8F0873146FD
:100C600030460EE7AC46EDE6184601E74345E6D2CE
:100C7000B8EB020E69EB07050138E0E72846D3E739
:100C800060468FE78146BAE7614677E708464BE75B
:100C9000ACF1020C3D4415E702383C4426E700BFA6
:100CA000704700BF1348144A08B54FF00043C0E92D
:100CB00000230422002342610122C2614FF48051CB
:100CC00007220383C0E90233C0E90933C0E90C12EB
:100CD0000361837680F8203080F82C30826380F8BE
:100CE0003C30C36401F06CFE18B1BDE8084000F070
:100CF0002BB908BDE0180020002401400268084B11
:100D00009A4282B00AD14FF0B0431A6E42F4007298
:100D10001A661B6E03F400730193019B02B07047C7
:100D2000002401400268054B9A4201BF4FF0B042D7
:100D3000136E23F400731366704700BF0024014054
:100D400030B585B000240546CDE901440394FFF792
:100D5000A9FF144802F0DCF908B100F0F5F81148D9
:100D6000039401A9CDE9015401F0ACFF08B100F0F2
:100D7000EBF80C4802F000F908B100F0E5F84FF08C
:100D8000FF31084801F040FF064802F0A3F905488A
:100D900001F095FF0446034802F050F9204605B0E3
:100DA00030BD00BFE0180020014B024A1A607047B6
:100DB000E01800200024014008B50948FFF7C0FFF3
:100DC00060B1084B1A884FF6FF739A4216BF40F67F
:100DD000E443054B5343B3FBF0F080B208BD00BFC2
:100DE000002000B4AA75FF1FD8084C0013B5FFF708
:100DF000E3FF04461848FFF7A3FF184B184A1B8867
:100E00001288934200FB04F016D040F6E444B0FB95
:100E1000F4F06424801A44439B1A94FBF3F41E34C8
:100E200024B201220F4B0094002110460EF06AF804
:100E3000200200B202B010BD40F6FF74B0FBF4F027
:100E40004FF47A744443A4F53924A4F50C6440F6B5
:100E5000C41094FBF0F4E2E7001000B0C875FF1F67
:100E6000A875FF1FD10301084FF0B04307B59A6C76
:100E700042F004029A649A6C02F004020192019A10
:100E80009A6C42F001029A649B6C03F00103009398
:100E9000002202210F20009B02F098F90F2003B0DE
:100EA0005DF804EB02F0C4B900B59BB04822002104
:100EB00008A80EF08DFD1C22002101A80EF088FD6F
:100EC00003F040F84FF0B0420120D2F8903023F008
:100ED0001803C2F89030D2F8003423F4C06343F40E
:100EE0000073C2F80034D2F8003403F4C0630093F6
:100EF000009B2423089381230B930023CDE9100347
:100F0000B02208A8CDE9122303F09CF908B172B60B
:100F1000FEE74F23CDE90130CDE9030005900790AE
:100F2000022101A803F02EFC08B172B6FEE71BB047
:100F30005DF804FB08B501F0D7FCFFF7B5FF00F042
:100F40009DFD00F0A2FDFCE772B6FEE700B58DB096
:100F50002C22002101A80EF03BFD1748174B03601F
:100F60001F2383604FF080420023C0E90433C0E9AF
:100F7000072383614FF48073436203F0CFFE08B10F
:100F8000FFF7E2FF0C4803F0EDFF08B1FFF7DCFFCD
:100F90004FF0005300220793074808924FF48073E4
:100FA00001A9029206920B9303F014FF08B1FFF718
:100FB000CBFF0DB05DF804FB441900200028004071
:100FC00010B5044690B03822002102A80EF000FDB2
:100FD0002268194B9A422CD14FF48033029302A815
:100FE0004FF480730F9303F009FD08B1FFF7ACFFD6
:100FF0004FF0B0430220D3F8902042F40042C3F8EF
:1010000090209A6D42F480629A659B6D002203F4F1
:10101000806311460193019B02F0D8F8022002F090
:1010200007F900222A20114602F0D0F82A2002F007
:10103000FFF810B010BD00BF0028004000F0E2B87B
:1010400000F068B808B5400000F09AF840B208BD5A
:1010500008B5400000F07AF840B208BD02464FF4EF
:101060007A73B0FBF3F003FB102303B1013000F0FF
:1010700033BA704708B501F04DFC044B0120C3F8AA
:101080008800BDE8084002F0B7BF00BF0004005868
:1010900001F048BC08B501F045FCBDE8084000F08F
:1010A000BDBC08B501F036FCBDE8084001210020B8
:1010B00002F050BF70477047FEE7FEE7FEE7FEE72D
:1010C000FEE770477047704770470000014803F023
:1010D0006FBF00BF44190020012002F021BC022094
:1010E00002F01EBC014802F081BA00BFD4190020F2
:1010F000014804F02DBB00BF341A0020014803F062
:101100008FBD00BF44190020014804F0E2B900BFC0
:10111000C81900200B4A08B513680BB9002008BD98
:10112000013B1360002BF9D14FF0B0420648936D9C
:1011300023F48003936502F06DFD0028EED06FF07C
:101140000700ECE75C0100207C19002007B513467E
:1011500042F2107200920A460146084802F074FDFD
:1011600040B1064802F0A1FE042814BF6FF06500EC
:101170006FF0030003B05DF804FB00BF7C19002092
:1011800007B5134642F2107200920A46014608481B
:1011900002F0F0FD40B1064802F087FE042814BFBB
:1011A0006FF065006FF0030003B05DF804FB00BF53
:1011B0007C190020114A124B70B50026C0E90023AB
:1011C0000123C0E90263C0E90466C0E9066606625D
:1011D000044602F0CDFC31460546204602F067FE8B
:1011E0000543EDB2AD1B3146204618BF012502F084
:1011F00084FEB0420CBF2846012070BD005800405C
:101200006C6EF01010B5214A1368591C88B011603B
:10121000002B39D11E4802F045FE002834D14FF092
:10122000B0444FF4C052E36C43F00103E364E36C59
:10123000059003F001030293029B1223CDE90323DF
:1012400003210423CDE906134FF0904003A902F0D7
:1012500041FAE36C0E4823F00103E364A36D43F409
:101260008003A365A36D03F480030193019BFFF743
:10127000A1FF014618B16FF0070008B010BD044887
:1012800002F015FE0028F6D10020F6E75C010020F0
:101290007C190020054808B50823036003F0CEFE42
:1012A00018B1BDE80840FFF74FBE08BDC8190020BF
:1012B0004FF0B04307B55A6E42F001025A665B6EBA
:1012C000002203F00103019311463220019B01F03B
:1012D0007DFF322003B05DF804EB01F0A9BF0000F0
:1012E0000CB407B5054A05AB102101930EF02CFA9A
:1012F00003B05DF804EB02B0704700BFF4030108CF
:1013000030B585B0044602A80D460EF049F8BDF987
:101310000C30064A00931021029B2046FFF7E0FFA5
:101320002046FEF72DFF288005B030BDF4030108EC
:101330000A4601467C20FFF709BF00004FF0B0428B
:1013400008B5936823F4004393600EF0AFF800F003
:10135000DCF800F0DDF80DF06DFD19480DF084FDAE
:1013600002200DF087FDFFF71FFDFFF74BFF00F098
:101370000BF928B1134B0122002102200DF0C2FD10
:1013800000220221102000F0BDFF0F49002000F0D4
:10139000FFFF0E49012000F0FBFF0D49022000F085
:1013A000F7FFFFF7B7FE0DF061FE012108460DF0D3
:1013B0007DFE0121BDE8084008460DF061BE00BF7A
:1013C00001130008FD03010840040108300401086E
:1013D000380401080DF080BE13B5FFF7EDFC40F6B0
:1013E000B833984215D8B0F5E16F14D3A0F5E16099
:1013F000FE2444434FF49663B4FBF3F4E4B2074B8A
:1014000000940122002102200DF07CFD204602B054
:1014100010BDFE24F3E70024F1E700BF2504010816
:1014200008B5FFF7E3FC0028B8BFFF30C0F30F207A
:1014300008BD000038B5174B1B685A1C044616D16E
:1014400001F078FA054601F081FA054401F078FAD6
:101450002B0EE3712B0CA3712B0A6371030EE37047
:10146000030CA370030A25716370207038BD1A0A3B
:10147000C37182711A0C1B0E0371074B42711A68FB
:10148000C2701B681A0A82701A0C1B0E427003701D
:10149000ECE700BF8075FF1F8475FF1F074B1868BE
:1014A000431C10B508D101F045FA044601F048FA92
:1014B000444001F04BFA604010BD00BF8075FF1F33
:1014C000012102200DF0DCBD002102200DF0D8BD6D
:1014D0000020704700F0A6B882B00190019802B0D9
:1014E00000F05AB9012808B507D101F035FA01F02A
:1014F00043FABDE8084001F04FBA01F035FA01F0B7
:1015000043FABDE8084001F04FBA0020FFF7EABFF8
:10151000034AD2F8903043F48043C2F890307047C9
:101520000008005813B50446FFF76CFE00230DF1C8
:101530000600ADF8063000F0BEFFBDF8063023B15E
:101540000C4A0D490D4800F078FF0A4B0C4A1B6805
:10155000A360094B1B68636000232360074B1B6873
:10156000E360084BC4E90423FFF7D4FD002002B078
:1015700010BD00BF64010020680100206001002050
:101580000D093E00AB03050010B5FFF757FD00F055
:10159000A0FF044640B942F2107000F070FF2046F0
:1015A00000F035FFFFF74CFD204610BD0B4B1968CE
:1015B00010B5024609B90A491960186809490A4C68
:1015C0000244091B8A4206D90EF0D8F90C230360A5
:1015D0004FF0FF3010BD1A60FCE700BF6C01002027
:1015E000901B00200080002000080000024B98683B
:1015F000024BC0431860704700280040740100206F
:10160000014B1868704700BF74010020034B044A67
:101610009B681068DB43181A704700BF0028004021
:1016200074010020034B187810B1034B9868C04335
:10163000704700BF70010020002800400320704761
:1016400008B501464FF47A7200238002890DFFF736
:10165000AFF908BD4FF47A72A0FB0223900A40EA6A
:101660008350704710B5074B074C0122DA654FF4E1
:101670008071204603F098FA4FF0FF332363002077
:1016800010BD00BF00280040441900200246002180
:10169000014803F09EBC00BF44190020024601210E
:1016A000014803F096BC00BF4419002010B58CB06F
:1016B0002C220021044601A80EF08AF9FFF7D2FF80
:1016C0000C4B186800230444089306934FF0005312
:1016D000E4430793084802944FF48073012201A960
:1016E0000B9303F077FB08B1FFF72EFC00200CB042
:1016F00010BD00BF74010020441900200C4B70B5D0
:101700009C68064602210B4803F06AFCE443002271
:101710001219C2F309044FF47A71A4FB014540F198
:101720000003A40A900A348040EA835070BD00BFD1
:1017300000280040441900200148002103F050BC5B
:10174000441900200148012103F04ABC441900203B
:10175000F8B50F4D2E78CEB90E4C4FF0FF372763FA
:10176000FFF7F4FBFFF77EFF4FF48071204603F094
:101770001BFA2046276303F0D7FB3246022120469E
:1017800003F027FCFFF732FF01232B700020F8BD88
:101790007001002044190020014608B54FF47A7208
:1017A00000238002890DFFF703F9054A9168C943B8
:1017B0009368DB435B1A834200D308BD00BFF7E7A1
:1017C000002800400DF07CBF10B5064C02212046D9
:1017D00003F006FC0221421C2046BDE8104003F045
:1017E000F8BB00BF441900201648174A08B54FF44B
:1017F000E133C0E9002300230C22C0E90233C0E931
:101800000523C0E90733C0E90933036104F006FD8D
:1018100008B1FFF799FB0B48002104F086FE08B1E0
:10182000FFF792FB0748002104F0A3FE08B1FFF781
:101830008BFB044804F056FE18B1BDE80840FFF7E2
:1018400083BB08BD341A00200044004070B596B038
:1018500006461422002103A80EF0BAF8382200210F
:1018600008A80EF0B5F832682B4B9A4251D10223EA
:10187000089308A8294B0A9303F0C0F808B1FFF7B2
:1018800063FB4FF0B04300259A6D254C42F40032C3
:101890009A659A6D02F400320292029ADA6C42F072
:1018A0000102DA64DB6C03F001030193019B0C225B
:1018B0000223CDE903230323CDE9055303A907231D
:1018C0004FF09040079301F005FF1649256214235D
:1018D000C4E900131023C4E9023520468023C4E97B
:1018E0000435C4E9065501F005FD08B1FFF72CFBEE
:1018F0000B48102101F0D0FE08B1FFF725FB252091
:10190000B46700220221A66201F060FC252001F0EC
:101910008FFC16B070BD00BF0044004004000C00F6
:10192000D41900205800024002680C4B9A4210B5AE
:10193000044612D14FF0B0420C21936D23F40033D2
:1019400093654FF0904001F071FFA06F01F044FDEE
:10195000BDE81040252001F079BC10BD00440040D6
:1019600008B50A460146024803F044FE002008BDBF
:10197000341A002013B5114B114C18604FF40013AA
:10198000009302AB13E90600204604F04EFD2368E5
:10199000DA69D103FCD4DA695202FCD59A680848A6
:1019A00042F480029A6004F087FD0649044801224F
:1019B00004F0ECFC002002B010BD00BF7801002054
:1019C000341A0020C41A002008B5074B1860FFF72E
:1019D0004BFAFFF709FF054AD2F8803043F0006365
:1019E000C2F88030002008BD7C01002000080058AB
:1019F00008B54FF0B04308489A6B42F400329A633E
:101A00009A6B22F400329A63FFF78EFF0F2001F0E9
:101A10001DFC002008BD00BF341A002008B507488F
:101A200004F0FCFB08B1FFF78FFA054801F062FCF7
:101A300018B1BDE80840FFF787BA08BD341A002086
:101A4000D4190020014B00201B6818477C0100209E
:101A5000084B1B6810B504462BB1D0F88C2012B986
:101A600005480121984720460349BDE8104001225E
:101A700004F08CBC78010020C41A002008B5FFF7E0
:101A80005DFCBDE8084000F095BA4FF0FF300DF066
:101A90008DBB000008B5022000210DF04FFBBDE812
:101AA000084001480DF0BABDD802002000210120F5
:101AB0000DF044BB30B50D4687B0044608B9002987
:101AC00059D0002000F00EFE2C480DF0A7FD00229A
:101AD00011462B4B02200DF015FA95F904300593B1
:101AE00095F90330049395F9023003932378029318
:101AF00095F90C20234B53F822300193AB680093E7
:101B00000022214B114603200DF0FCF92578022D0F
:101B100010D0032D2FD16378012B2CD16368187856
:101B2000012802D0022800D028BB07B0BDE8304011
:101B300004F082BE6378012B1DD163681A78134BC1
:101B400002F001021A7052B9114B114628460DF0ED
:101B5000D9F9284607B0BDE8304000F0D3BD0022D7
:101B60000C4B114628460DF0CDF9284607B0BDE8CC
:101B7000304000F0B7BD07B030BD00BF7402002098
:101B80009804010880070108C904010872020020B6
:101B9000100501081E050108002000F0B3BD00007B
:101BA00038B5184C0546FFF72DFB23781BB100F024
:101BB00081FB00232370E5B100210D2000F083FBA1
:101BC00095F90140CCB9022000F09CFD0E4800F0D0
:101BD00001FC0E4B2246214602200DF093F9AB7812
:101BE000012B0CBF0A4B0B4B0022114602200DF0BB
:101BF00089F9BDE83840FFF78DBA074800F0EAFBE5
:101C0000064BF1E74C0000202B0501082F050108C9
:101C100044050108610501087E05010882050108E7
:101C200008B5FFF7EFFA01210F2000F04CFB202050
:101C300000F030FBFFF76EFABDE80840012000F02D
:101C400061BD0000F0B585B000250395FFF7DAFA15
:101C500001210F2000F037FB284600F01BFBFFF7A7
:101C600059FAFFF7C3F8234C234B40F30F2001220E
:101C70002946009002200DF045F96068FEF752FEFB
:101C800047B2A068FEF774FEC6B2E0681B4CFEF7D0
:101C900049FE022323706368C0F307221A70636849
:101CA000174A5870636812789F706368DE706368C3
:101CB0001A710523637029462B4603AA204604F0B7
:101CC0005BFE014630B901220E4B10460DF01AF9A9
:101CD00005B0F0BD039B002BFAD04FF47A72B3FB32
:101CE000F2F3012200932946074B10460DF00AF942
:101CF000EEE700BF8C0200209B05010800000020D9
:101D000072020020A9050108B80501081FB50446A4
:101D1000002834D00378002B31D0012000F0E2FC01
:101D20001C480DF07BFC002211461B4B02200DF0DD
:101D3000E9F894F91430039394F904300293237B67
:101D40000193A368009300221146144B03200DF069
:101D5000D9F80022124B114603200DF0D3F8A378D6
:101D6000012B0ED1E1780F4A0F4B002908BF134613
:101D70000022009311460D4B03200DF0C3F804B070
:101D800010BD00220A4B1146032004B0BDE81040EC
:101D90000DF0B8B8C0020020DB0501080C060108F0
:101DA0003D060108D6050108D70501084A060108C5
:101DB0005B0601082DE9F04F374B0FCB85B06C4621
:101DC00084E80F00354B00221D68354BB5FBF3F559
:101DD0004FF47A76234641F6573753F8040B68439D
:101DE000B842B0FBF6F188BF063943F8041CD107AE
:101DF00048BF53E9020102F1010244BF091843F848
:101E0000041C042AE9D10120FFF766FB254B1A6860
:101E100012F0010209D12448C16841F08071C1600B
:101E20005A601A6842F001021A60EFF3108E72B61F
:101E30001E4E1F4D1B4900224FF48058B44615F822
:101E4000013B082000274FEA931A4F600AF0020A6C
:101E500004AF04EB8A0907EB8A0AC6F818805AF81F
:101E600010AC104FD7F804B0D345FAD34FF08057D9
:101E7000CCF818705B00D9F80490DBB2D1F804A05C
:101E8000CA45FBD30138DDD10132242AD7D18EF3E4
:101E9000108805B0BDE8F08F500301085000002005
:101EA00040420F00001000E0F0ED00E000040048A8
:101EB000F002002070B59DF810600024E5B2A94240
:101EC00000F1030000D870BD00F8033C00F8022CBC
:101ED00000F8016C0134F1E77FB52E4CFFF792F961
:101EE0002046FFF71FFB6068FEF71CFD45B2A068A7
:101EF000FEF73EFDC6B2E068FEF714FD002184B295
:101F0000084600F0E0F92146234800F063FA012179
:101F1000002000F0D8F9252332462048294600F059
:101F200059FA6FF44873E3180022C62B00922AD89E
:101F30007F23FE221A480C21FFF7BCFFFFF73AFF70
:101F4000184B00950122002102200CF0DBFF164BFC
:101F500000960122002102200CF0D4FF134B0094C4
:101F60000122002102200CF0CDFFCDE90156104BDB
:101F700000940122002102200CF0C4FF04B0BDE84F
:101F80007040FFF7C7B8B4F57A7F01D91346D0E7A0
:101F9000FE23CFE78C0200206906010875060108C0
:101FA000F00200209F050108880601089606010836
:101FB0009F0601082DE9F0438DB000244FF0B04397
:101FC0000B94DA6C7348744FDFF8109242F00202FF
:101FD000DA64DB6C099403F0020304930125022602
:101FE00007A9049B0A964FF48053CDE9073501F009
:101FF00071FB204600F04EFB284600F04BFB3046BC
:1020000000F048FB2946284600F08CFBFFF7D2FE83
:102010002346FE220C2138460094FFF74BFF4FF079
:10202000FE084FF4FA70FFF757FAFFF7C3FE234696
:1020300022460C21CDF800803846FFF73BFF4FF4D5
:10204000FA70FFF749FAFFF7B5FE434622460C2126
:1020500038460094FFF72EFF4FF4FA70FFF73CFA72
:10206000FFF7A8FE22462146CDE901544B4B0095CF
:1020700030460CF047FF0323CDE90063224621469A
:10208000474B029430460CF03DFFDFF85481454B3E
:10209000009522462146CDE9015430460CF032FF2E
:1020A000414F424B009422464FF0FF3148460DF01D
:1020B00007FA22463E4B00944FF0FF3140460DF0A8
:1020C000FFF93C4B00942A464FF0FF3138460DF0A3
:1020D000F7F94FF4FA7148460DF0DAFA4FF4FA7155
:1020E00040460DF0D5FA42F2107138460DF0D0FAA4
:1020F00021462846304A0DF0E3F821462F4A304663
:102100000DF0DEF800F076F82D4804F0DFFD2D48E4
:1021100004F08CFA38460DF081FA30462A4E04F06D
:10212000E9FB2246294B00944FF0FF3130460DF079
:10213000C7F9274930460DF0ABFA30460DF06EFA7C
:1021400005A804F0F5FDFFF75DF82146204600F0F4
:10215000BAF89DF817309DF815209DF814100093DB
:102160001C489DF8163000F035F92946204600F04D
:10217000AAF89DF81B309DF819209DF818100093BF
:1021800015489DF81A3000F025F9FEF7C3FF0DB091
:10219000BDE8F08300040048F0020020BB060108FF
:1021A000DB060108FB060108A8020020211C00082C
:1021B000991B0008D91E0008D5670008451C0008B7
:1021C000080000203C000020D8020020951A0008DA
:1021D000C0D401001B07010833070108C00200201A
:1021E00074020020012803D1002102200CF0A6BFB8
:1021F00070470000044B0022C3E902224FF49071A3
:102200000322C3E9002170471403002000487047EF
:102210001403002000F0ECBA00F02ABB00F05CBB15
:1022200000F05CBB00F05CBB0D48854600F05AFB3B
:102230000C480D490D4A002302E0D458C450043321
:10224000C4188C42F9D30A4A0A4C002301E01360F7
:102250000432A242FBD30DF097FBFEF76BFEFEE7C4
:10226000008000200000002040010020AC11010887
:10227000400100208C1B0020FEE707B580238DF86D
:102280000500022101A88DF80430FFF751F803B0D2
:102290005DF804FB07B540238DF80500022101A875
:1022A0008DF80430FFF744F8B0FA80F0400903B02D
:1022B0005DF804FB08B50120FFF7DFFFBDE808402B
:1022C0000320FFF709B907B569B940F08000802302
:1022D0008DF80500022101A88DF80430FFF728F8D9
:1022E00003B05DF804FB40F0C000F0E7044B187841
:1022F00040F0040240F00C001A70FFF7BEBF00BFB0
:1023000024030020012910B51E4C33D9237843F053
:10231000080323703320FFF7DFF8207840F0200017
:10232000FFF7ABFF0520FFF7D7F8207840F020003B
:10233000FFF7A3FF0120FFF7CFF8207840F020003F
:10234000FFF79BFF0120FFF7C7F8207840F020003F
:10235000FFF793FF0C4B042204461A70FFF7C6FFE9
:10236000FFF7A8FF094B022206201A70FFF785FF2E
:10237000204310BD002ACDD00129CBD1237843F0D2
:102380000403C6E7250300202403002026030020C1
:102390001FB500F00700C00040F040000C46FFF7FA
:1023A0006CFF0120FFF798F840238DF804300DF101
:1023B0000502631E073413F8011F02F8011BA34234
:1023C000F9D1092101A8FEF7B3FF0120FFF784F836
:1023D00004B010BD0FB430B587B00AAA01AD52F8F1
:1023E000041B009228460DF011FB00242846FDF73F
:1023F000C7FEA04201D9102C04D107B0BDE830407F
:1024000004B07047285DFFF745FF0134EEE707B5DC
:10241000ADF8060020B1A0F52F70B0F52F7F09D8D8
:1024200001230DF106021021612000F0FBF803B03A
:102430005DF804FB4FF0FF30F9E7F0B5074685B0D3
:102440000E4661204FF44071154600F0DCF804465A
:1024500090B9062201A9612000F08BF8044658B912
:1024600001A800F041F8386002A800F03DF83060A3
:1024700003A800F039F82860204605B0F0BD13B578
:10248000ADF80600023880B240F2067398420FD8C9
:1024900001230DF106024FF48C41612000F0C2F8D7
:1024A000044644F62060FEF7D9FD204602B010BD78
:1024B0004FF0FF34F9E707B501220346009240F2DE
:1024C000022140F6B832612000F0BBF803B05DF89D
:1024D00004FB07B50DF10600FFF7EDFF03B05DF853
:1024E00004FB006800BA704708B5FFF7FAFF08BDA3
:1024F00003460144FF20994200D1704713F8012B95
:102500005040082210F0800F02F1FF324FEA4000E5
:1025100018BF80F0310012F0FF02C0B2F2D1EAE73A
:1025200010B51446FFF7E4FF001B18BF4FF0FF3053
:1025300010BDF8B51C460B0A0370417015460230F9
:1025400002EB4407BD4200F1030603D104EB44044F
:10255000A01CF8BD2B881B0A06F8033C35F8023B8B
:1025600006F8023C0221FFF7C3FF06F8010C3046D3
:10257000E8E72DE9F04302EB420291B096B28846BB
:1025800032466946FEF75EFD05B21DB92F462C4660
:10259000B44203D3284611B0BDE8F08310AB03EB7F
:1025A0000409022119F83E2C0DEB0400FFF7B8FFD7
:1025B00000B270B97B1C1DF8042008F807209BB2FC
:1025C00019F83F2C08F8032002370334BFB2A4B235
:1025D000DEE70546DEE770B50C461546FFF7C9FF96
:1025E00028B90346DAB2AA4203F1010100D370BD53
:1025F00004EB420314F812605B7843EA062324F8E4
:1026000012300B46EEE713B500231A46044601A824
:10261000FFF78FFF022201A92046FEF719FD00B245
:1026200002B010BD10B588B00446DBB26846FFF7B3
:1026300080FF694602462046FEF70AFD00B208B058
:1026400010BD73B51E4600230446154601A81A4660
:10265000FFF76FFF022201A92046FEF7F9FC00B246
:1026600048B915B12846FEF7F9FCBDF818203146E7
:102670002046FFF7B0FF02B070BD4FF0B04382B00C
:10268000DA6C0243DA64DB6C18400190019B02B003
:102690007047000070B586B014220446002101A8DE
:1026A0000DF096F90220FFF7E8FF0C4B002533F8F8
:1026B000146001960123CDE9023502230493084BEF
:1026C00053F8244001A9204601F004F820462A4688
:1026D000314601F01FF9284606B070BDB007010869
:1026E000B807010808B5054B33F81010044B012258
:1026F00053F8200001F00EF9002008BDB0070108D2
:10270000B807010808B5054B33F81010044B002238
:1027100053F8200001F0FEF8002008BDB0070108C2
:10272000B807010830B587B004460D4614220021D1
:1027300001A80DF04DF9012C15D80120FFF79DFFE0
:102740001C4B33F81430019301220223CDE90323FB
:10275000194B53F8240055B901A9029500F0BAFFAE
:10276000002007B030BD022CEAD10420E6E74FF488
:10277000041301A9114D029300F0ACFF104B05EBBF
:10278000C40553F82410284600F09DFF0D4B00218E
:1027900053F82420284600F08FFF0B4B1D570B4B9E
:1027A000284653F82410002200F010FD284600F0BF
:1027B0003FFDD5E79C070108A4070108C81A0020BF
:1027C000D0070108C407010898070108DC070108C1
:1027D000704708B50220FFF7FBFF08BD08B50120D0
:1027E000FFF7F6FF08BD08B50020FFF7F1FF08BDB1
:1027F0002DE9F04186B000244FF0B0430594DA6C27
:102800001A4D42F00402DA64DB6C039403F0040313
:102810000093009B10270123CDE9017301A9032335
:10282000284604934FF0200800F054FF01A92846E1
:102830000826CDF8048000F04DFF01A92846019636
:1028400000F048FF22464146284601F063F8224640
:102850003946284601F05EF828462246314601F006
:1028600059F8204606B0BDE8F08100BF00080048D6
:1028700008B5032812D8DFE800F002131A26002258
:102880001448082101F046F800221248102101F0F6
:1028900041F800220F48202101F03CF8002008BD3B
:1028A00001220C48082101F035F80122EDE7012250
:1028B0000848082101F02EF801220648102101F0F5
:1028C00029F80122E6E701220248082101F022F856
:1028D0000022F2E7000800480020704701207047FE
:1028E000012070477047000010B5032000F05CFC29
:1028F00001F098FC064B18600F20FEF7E9FD044636
:1029000018B9FEF7D8FB204610BD0124FBE700BF35
:1029100050000020024A136823F00203136070473E
:1029200010E000E0024A136843F0020313607047AE
:1029300010E000E0014B1868704700BF9075FF1F62
:10294000014B1868704700BF9475FF1F014B186852
:10295000704700BF9875FF1F024A536843F0010398
:1029600053607047002004E0024A536823F00103DB
:1029700053607047002004E0024A536843F00203AA
:1029800053607047002004E0024A536823F00203BA
:1029900053607047002004E0024A536843F0040388
:1029A00053607047002004E0024A536823F0040398
:1029B00053607047002004E08068C0F380007047D7
:1029C0002DE9F341002301930446002800F00A8119
:1029D000856D25B9FEF792F9E56584F854502068B5
:1029E0008368D90040F1B3808368DA0000F1C680C3
:1029F000A36D43F01003A365E36D43F00103E365AA
:102A00000121FFF7D9FFA36D03F010031843A36D55
:102A100040F0EA8023F4817343F002032268A36547
:102A20009368DB0700F1AC80D368A568666823F083
:102A300018032B43D360E36C06F0404C4CEA0305CB
:102A400094F83C30012B09D1D4E910373B432B4398
:102A5000A56C2B4343EA0C0343F001051769644B53
:102A60003B402B43136126F00043B3F1804F0AD063
:102A7000B6F1004F07D05F4F3B6806F4701623F4A1
:102A800070131E433E60637E267EE768D4F830C034
:102A900094F82C80DB0343EA8633A67E3B43BCF1EB
:102AA000000F43EA463318BF4FF4805C276943EABE
:102AB000480343EA0C0394F820C0002FB4BF27F06A
:102AC000004E4FF4001EBCF1010F43EA0E0E03D17D
:102AD000002E57D14EF4803E666A2EB1A36A06F4EA
:102AE000E0761E434EEA060ED66826F4FE3626F43D
:102AF000F37646EA0E06D660D2F810C03E4E0CEAD7
:102B00000606354315615569666B25F007053543A3
:102B100055615569A66B25F0700545EA06155561A6
:102B2000002F38D1906A60F00F009062D068334A6D
:102B3000024072454CD10023E365A36D23F00303EB
:102B400043F00103A365084602B0BDE8F081836845
:102B50002B4A23F0104323F0170343F08053836084
:102B6000284B1B68B3FBF2F301335B000193019B1D
:102B7000002B3FF439AF019B013BF7E7002140E711
:102B8000054680E7A66D46F02006A665E66D46F090
:102B90000106E665A0E7B7F5001FC7D1266E8500E0
:102BA00026FA05F505F00F050F2D0ED00130082887
:102BB000F5D1906AE0690138800000F01C006FF0E8
:102BC0000F0505FA00F03043AFE70128AAD0F0E77F
:102BD000A36D23F0120343F01003A365E36D43F0EC
:102BE0000103E3650121AEE743F01003A365F9E7B4
:102BF00002FCFF1F0827014002FCFFDFE7FF3F83C5
:102C0000400D030050000020F8B54569082D04462A
:102C10000E460AD00368DB68D90705D5836D43F0FB
:102C2000200383650120F8BD0425FEF753FC074609
:102C3000206803682B4222D0A36D43F40073A36580
:102C4000C36813F4406F14D1A37E93B903681B07C4
:102C50000FD5FFF7B1FE38BB2268536823F00C0391
:102C60005360A36D23F4807323F0010343F0010349
:102C7000A365207E08BB23680C221A60D3E7721C70
:102C8000D7D0FEF727FCC01BB04201D8002ECFD111
:102C900023681B682B40CBD1A26D84F8543042F0DE
:102CA0000402A2650320BEE7A36D43F02003A365E1
:102CB000E36D43F00103E365DBE70020B3E703685E
:102CC000186C7047F7B50023019390F85430012B2E
:102CD000044600F0BB80012380F854300068FFF701
:102CE0006BFE002840F0AC80486823690A6802281F
:102CF00023F004037CD0B3F1004F2568C2F3110E1A
:102D000013D1AB6A43EA0E03AB628B68686903EACE
:102D1000022323F07C4323F0FF0320EA02210B432C
:102D2000002A6B6126DB002050E0236E00F01F07B5
:102D30004FF00F0C0CFA07FC6FEA0C0623EA0C0CA0
:102D4000BEF1000F11D1C2F38463BB4043EA0C0310
:102D500023668008E36901309842D6D8A86AC2F396
:102D60008363BB4006403343CEE792FAA2F3B3FA43
:102D700083F3EAE7364937480B68824203F0E0758F
:102D800017D11B02CFD40B68334A23F0E0732B43D7
:102D900043F400030B60314B1B68B3FBF2F20C23CE
:102DA00002FB03330193019B002BBCD0019B013B31
:102DB000F8E72B4882420ED113F08070B3D10B6834
:102DC00023F0E0732B4343F080730B60002384F8FF
:102DD000543003B0F0BD23488242A4D113F48000E4
:102DE000A1D10B6823F0E0732B4343F48003ECE79D
:102DF000B3F1004F06D121688B6AC2F3110023EAB8
:102E000000038B62002A8EDA1248114982420B6855
:102E100007D10A6803F0A07322F0E07213430B603D
:102E200081E70F48824203D10A6803F44003F3E7C5
:102E30000C4882427FF477AF0A6803F0C073EBE777
:102E4000A26D42F02002A2651846BFE70220C0E74B
:102E500008270140001000B0400D03005000002082
:102E6000004000B8002000B438B504460068FFF701
:102E7000A3FD08B9002038BD22689368990707D4DC
:102E8000936823F0004323F0170343F0100393608B
:102E9000FEF720FB054623689B685B07EAD5FEF733
:102EA00019FB401B0228F6D923689B685A07F2D504
:102EB000A36D43F01003A365E36D43F00103E365E5
:102EC0000120D8E773B50023026801939368DD07FA
:102ED000044602D5002002B070BD9168214B194212
:102EE00009D0A36D43F01003A365E36D43F0010324
:102EF000E3650120EFE7936823F0004323F0170315
:102F000043F001039360184B1B6818021CD4637EC6
:102F1000012BDFD0FEF7DEFA144E05462268136857
:102F2000DB07D7D49368D9075FBF9368334043F07A
:102F300001039360FEF7CEFA401B0228EED9236806
:102F40001B68DA07EAD4CCE7094B0A4A1B68B3FBD3
:102F5000F2F301330193019B002BD8D0019B013B7D
:102F6000F8E700BF1700008008270140E8FFFF7F57
:102F700050000020400D030038B504460068FFF7FC
:102F80001BFD054620BB94F85430012B20D00123B3
:102F900084F854302046FFF795FFB0B9A36D22683E
:102FA00023F4706323F0010343F48073A3651C23AF
:102FB000E065136084F85400936823F0004323F025
:102FC000170343F00403936038BD84F85450FBE7C3
:102FD0000220F9E7026838B5936891680446C8078B
:102FE00001D4002038BD9907FBD4936803F0050392
:102FF000012B19D1936823F0004323F0170343F00A
:103000000203936003231360FEF764FA0546236806
:103010009B68DB07E5D5FEF75DFA401B0228F6D971
:1030200023689B68DA07F2D5A36D43F01003A3650C
:10303000E36D43F00103E3650120D3E770B5044677
:10304000002841D0836D43F002038365FFF70CFF36
:10305000054668B92046FFF7BDFF054608B90123BC
:10306000A3652268936823F0104323F0170393604D
:1030700023685A6822F4677222F003025A6040F211
:103080009F321A60D968114A0A40DA601A6922F040
:1030900040421A615A6922F007025A611A6A02F024
:1030A000F0221A629A6A0A4A00269E62136823F086
:1030B000FE7313602046FDF735FEE6652666A665BD
:1030C00084F85460284670BD0125FBE700023E836A
:1030D0000827014010B590F85430012B044615D054
:1030E000012380F85430FFF7BFFE58B92046FFF7A0
:1030F00071FF38B9A36D23F4807323F0010343F00B
:103100000103A365002384F8543010BD0220FCE7BE
:1031100013B50023019390F85430012B044640D09E
:10312000012380F85430FFF755FF23689A68D207CF
:1031300033D4A26D22F4817242F00202A265D968F2
:10314000DA6822F00302DA609A6842F0004201F085
:1031500003019A609A68002A12DA019A01320192F8
:10316000019AB2F52E3FF5D3A36D23F0120343F07D
:103170001003A365002384F85430012002B010BD71
:10318000DA680A43DA60A36D23F0030343F0010316
:10319000A365002384F85430F0E7A36D43F01003D7
:1031A000F6E70220EAE700000749CA6822F4E06275
:1031B0000302120403F4E063120C134343F0BF63F1
:1031C00043F40033CB60704700ED00E0164B30B5A0
:1031D000DC68C4F30224C4F10703251D042B28BFB7
:1031E0000423062D4FF0FF3505FA03F38CBF033C93
:1031F000002421EA0303A34005FA04F422EA0402AE
:10320000002843EA0203ACBF00F16040074A4FEADE
:103210000313B8BF00F00F00DBB2AABF00F5614096
:10322000135480F8003330BD00ED00E014ED00E0F1
:10323000002808DB0123420900F01F0003FA00F018
:10324000014B43F82200704700E100E000280DDB4D
:103250004309012200F01F0002FA00F02033044A63
:1032600042F82300BFF34F8FBFF36F8F704700BF4B
:1032700000E100E070B5D0E913456560446D14B11C
:10328000D0E916456560D0E9105404F01C0601240D
:10329000B4406C60046863608368102B0BBFA2604D
:1032A000A160E160E26070BD0268416CD3B210B50C
:1032B000083B1424B3FBF4F30B4CA24288BF0B4A27
:1032C00021F0030199BF01F1804202F50232521848
:1032D00007338264064AC26403F01F03012202FA24
:1032E00003F3036510BD00BF070402401C08024041
:1032F0008008024010B5002860D00268304B9A4226
:103300004FF014044DD82F491144B1FBF4F189005A
:103310004164A3F207430364022380F82530136855
:1033200023F4FF4323F070031360D0E902342343F6
:103330000469116823434469234384692343C469AE
:103340002343046A23430B431360FFF7ADFF8368F5
:10335000816CB3F5804F04BF00234360426802F0E4
:103360007F030B60D0E91314013A032A4C6020D884
:10337000154A164C84651A44013B9200012103F062
:10338000030301FA03F300214265C3651160636022
:1033900000230122C36380F8243080F825201846DA
:1033A00010BD0B4B1344B3FBF4F39B004364094B78
:1033B000B1E70023C0E91533C365E9E70120EFE772
:1033C00007040240F8FFFDBF3F82001040090240A1
:1033D000F8FBFDBF0004024038B5002845D0016865
:1033E0000B6823F001030B60214B99424FF014044A
:1033F00033D8204A0A44B2FBF4F292004264A3F2AA
:1034000007430364D0E91023012403F01C0304FAEA
:1034100003F300250D605360FFF746FF836C41689E
:103420001D60D0E913325A604A1E032A06D8124B97
:103430000B449B0094401D60104B5C600023C363F1
:10344000C0E91533C0E90B33C0E90D33C36580F81B
:10345000253080F82430184638BD094B0B44B3FBA7
:10346000F4F39B004364074BCBE70120F4E700BF74
:1034700007040240F8FFFDBF3F82001040090240F0
:10348000F8FBFDBF0004024070B590F82450012DF8
:1034900004463CD090F825600125AE4280F82450C7
:1034A0004FF000062DD1022580F82550C66306682E
:1034B000356825F001053560FFF7DCFE026B036817
:1034C000BAB11A6842F00E021A60A26C1168C90300
:1034D00042BF116841F480711160626D1AB11168C8
:1034E00041F4807111601A6842F001021A600020F4
:1034F00070BD1A6822F004021A601A6842F00A02CB
:10350000E2E78023C36380F824602846F0E70220C6
:10351000EEE740B190F82530022B06D00423C363B8
:10352000002380F82430012070470368816C1A68FA
:1035300022F00E021A600A6822F480720A601A6889
:1035400022F001021A60D0E9101303F01C020123DB
:1035500093404B60D0E913325A60436D33B11A681F
:1035600022F480721A60D0E916325A60012380F882
:103570002530002380F824301846704710B590F8A5
:103580002530022B03D00423C363012010BD036840
:103590001A6822F00E021A601A6822F001021A60FC
:1035A000826C136823F480731360D0E9101303F066
:1035B0001C02012393404B60D0E913325A60436DE3
:1035C00033B11A6822F480721A60D0E916325A6058
:1035D000012380F82530836B002480F8244013B148
:1035E00098472046D2E71846D0E7000070B4426CF6
:1035F000046C036826681D6802F01C0204219140D7
:1036000031420FD015F0040F0CD01A6892065EBF3D
:103610001A6822F004021A60036B6160002B33D039
:1036200070BC184702219140314217D015F0020FAB
:1036300014D01A68940606D41A6822F00A021A6096
:10364000012280F82520114A93428CBF104B114B68
:103650005960002380F82430C36ADFE708219140D5
:10366000314211D029070FD5196821F00E011960D8
:10367000012303FA02F26260C36380F8253000235D
:1036800080F82430436BC9E770BC7047800002406B
:10369000000402400000024060B10268C8061368DE
:1036A00005D5C9024CBF43F4801323F48013136083
:1036B00000207047012070470346084609B95A6048
:1036C00070470120704710B1016000207047012051
:1036D000704700002DE9F04F524C00234FF00F09C6
:1036E0000A6832FA03F501D1BDE8F08F012505FA29
:1036F00003F818EA020200F08F804E68032706F0F4
:1037000003054FEA430E07FA0EFC6F1E012F6FEA06
:103710000C0C32D8876807EA0C0ACF6807FA0EF754
:1037200047EA0A078760476827EA0808C6F30017D0
:103730009F4047EA08074760C76807EA0C088F6898
:1037400007FA0EF747EA0807022DC76017D14FEABC
:10375000D30800EB880803F0070AD8F820704FEA76
:103760008A0A09FA0AFB27EA0B0B0F6907FA0AF71C
:1037700047EA0B07C8F8207001E0032DDCD1076889
:1037800007EA0C0C05FA0EF747EA0C0716F4403F5F
:10379000076041D023F0030707F1804707F5803722
:1037A00003F0030CBD684FEA8C0C4FF0070E0EFAC5
:1037B0000CFEB0F1904F25EA0E0E2FD01A4DA84204
:1037C0002ED005F58065A8420CBF0225072505FA15
:1037D0000CF545EA0E05BD60D4F88050D74316F4C9
:1037E000803F0CBF3D401543C4F88050D4F884504E
:1037F00016F4003F0CBF3D401543C4F884502568C3
:1038000016F4801F0CBF3D40154325606568B60265
:1038100054BF3D4015436560013361E70025D6E79D
:103820000125D4E70008005800040048374A2DE974
:10383000F04F00234FF0010A4FF0070B4FF00F0934
:1038400031FA03F401D1BDE8F08F0AFA03FC1CEA57
:10385000010654D023F0030404F1804404F58034BD
:1038600003F00307A568BF000BFA07F8B0F1904F0B
:1038700008EA050E45D0264DA84244D005F58065DE
:10388000A8420CBF02250725BD40754517D1D2F8C7
:10389000805025EA0605C2F88050D2F8845025EA07
:1038A0000605C2F88450156825EA060515605568B6
:1038B00025EA06065660A56825EA0805A56005689C
:1038C00003265C0006FA04F423FA06F6254300EB0F
:1038D0008606056003F00705376AAD0009FA05F5AD
:1038E00027EA05053562856825EA0405856045688F
:1038F00025EA0C054560C56825EA0404C460013367
:103900009EE70025C0E70125BEE700BF000800587C
:10391000000400480AB1816170478162704700006D
:10392000044AD168014208B502D0D060FEF75AFCC3
:1039300008BD00BF0008005803689A69910744BF9A
:1039400000229A629A69D2075EBF9A6942F0010228
:103950009A61704730B5039D046845EA02421A43F4
:10396000054B6068C1F3090143EA55530A4320EA55
:1039700003000243626030BDFF63FF03036870B55C
:103980000446986910F010000D46164639D05A6862
:10399000900103D45A6842F480425A6023689A69BD
:1039A000920618D510222025DA612046DD61FFF746
:1039B000C3FF2268536823F0FF7323F48B3323F48F
:1039C000FF7323F001035360636C43F004036364EB
:1039D00084F841500FE0691CE1D0FDF77BFD801BAE
:1039E000854201D3002DD9D1636C43F02003636479
:1039F000202384F84130002384F8423084F840309A
:103A0000012070BD70B504460D46164623689B69BB
:103A10005B070ED4324629462046FFF7AFFFF0B9C8
:103A200023689A6991061CD59A69520703D5228D9D
:103A30000AB1002070BD2021D9615A6822F0FF72BE
:103A400022F48B3222F4FF7222F001025A6000232A
:103A5000636484F8411084F8423084F840300120D7
:103A6000E8E7FDF737FD801BA84201D8002DCDD136
:103A7000636C43F020036364202384F84130002307
:103A8000EBE770B504460D46164623689B699B0715
:103A900001D5002070BD324629462046FFF76EFF53
:103AA000A0B96A1CF1D0FDF715FD801BA84201D812
:103AB000002DEAD1636C43F020036364202384F873
:103AC0004130002384F8423084F840300120E1E79F
:103AD00070B504460D46164623689B699B0601D5C2
:103AE000002070BD324629462046FFF747FF90B9B7
:103AF000FDF7F0FC801BA84201D8002DECD1636CCF
:103B000043F020036364202384F84130002384F8C9
:103B1000423084F840300120E3E72DE9F041069F70
:103B20000446884616461D462268936938EA030310
:103B30000CBF01230023B34201D0002015E06B1C11
:103B4000F3D0FDF7C7FCC01BA84201D8002DEBD174
:103B5000636C43F020036364202384F84130002326
:103B600084F8423084F840300120BDE8F08170478D
:103B700010B5044600284AD090F8413003F0FF0207
:103B80001BB980F84020FFF7F2FF242384F841306E
:103B900023681A6822F001021A60626822F07062DB
:103BA0001A619A6822F400429A60D4E9022101293C
:103BB00024D142F400429A605A6842F0007242F402
:103BC00000425A60DA6822F40042DA60D4E9042143
:103BD0000A43A16942EA0122DA60D4E907210A43D3
:103BE0001A601A6842F001021A6000202023606403
:103BF00084F84130206384F8420010BD42F404424E
:103C000002299A6004BF4FF400625A60D4E7012091
:103C1000F3E7704710B5044698B10268242380F892
:103C20004130136823F001031360FFF7F2FF002017
:103C3000606484F8400084F84100206384F8420006
:103C400010BD0120FCE700002DE9F347984690F8ED
:103C500041300A9F202B04460E46914640F0868054
:103C600090F84030012B00F081804FF0010A80F87D
:103C700040A0FDF72FFC19230546009052464FF453
:103C800000412046FFF749FF18B1012002B0BDE80E
:103C9000F087212384F84130102384F84230606497
:103CA000A4F82A80638DC4F824909BB2FF2B606334
:103CB0002F4B26D9FF22228500934FF08073314687
:103CC0002046FFF747FE638D9BB22A4639462046C1
:103CD000FBB9FFF7FDFE0028D7D123682021D96169
:103CE0005A6822F0FF7222F48B3222F4FF7222F023
:103CF00001025A6084F8411084F8400084F84200C0
:103D0000C4E7628D009392B222854FF00073D2B265
:103D1000D5E7FFF7B6FE0028B7D1636A226813F82B
:103D2000011B91626362638D228D013B9BB26385AF
:103D3000638D013A92B29BB22285002BC3D0002A38
:103D4000C1D100953B4680212046FFF7E6FE0028C2
:103D50009BD1638D9BB2FF2B03D9FF22228500905C
:103D6000ABE7628D009092B22285CEE702208DE70C
:103D7000002000802DE9F347984690F841300A9FD3
:103D8000202B04460E46914640F0878090F8403044
:103D9000012B00F082804FF0010A80F840A0FDF76F
:103DA00099FB19230546009052464FF400412046E6
:103DB000FFF7B3FE18B1012002B0BDE8F08722235F
:103DC00084F84130102384F842306064A4F82A80DB
:103DD000638DC4F824909BB2FF2B6063304B26D9CF
:103DE000FF22228500934FF0807331462046FFF773
:103DF000B1FD638D9BB22A4639462046FBB9FFF7D9
:103E000067FE0028D7D123682021D9615A6822F0A3
:103E1000FF7222F48B3222F4FF7222F001025A6008
:103E200084F8411084F8400084F84200C4E7628DB1
:103E3000009392B222854FF00073D2B2D5E7FFF71C
:103E4000E1FD0028B7D123685A6A636A1A70636A71
:103E5000228D01336362638D013B9BB26385638D69
:103E6000013A92B29BB22285002BC2D0002AC0D167
:103E700000953B4680212046FFF74FFE00289AD14F
:103E8000638D9BB2FF2B03D9FF2222850090AAE706
:103E9000628D009092B22285CDE702208CE700BFB0
:103EA0000024008090F841007047406C704710B5C6
:103EB00090F84130202BDCB21DD190F84030012B1E
:103EC00019D0242380F8413003681A6822F00102D7
:103ED0001A601A6822F480521A601A681143196035
:103EE0001A6842F001021A60002380F8414080F80D
:103EF0004030184610BD0220FCE710B590F8413064
:103F0000202BDCB21CD190F84030012B18D0242398
:103F100080F8413003681A6822F001021A601A68BA
:103F200022F4706242EA012119601A6842F001022B
:103F30001A60002380F8414080F84030184610BDD8
:103F40000220FCE7024A136843F480731360704751
:103F5000000400580D4B10B55B690C4628B99A0552
:103F600007D500F027F820B110BD9B0501D400F063
:103F700019F8074A1369012C23F00403136101D1D6
:103F800030BFF1E740BF20BF20BFEDE7000400587D
:103F900000ED00E0024B186800F4C060704700BFFD
:103FA00000040058024A136843F4804313607047CA
:103FB000000400580D4A136823F4804313600C4B2F
:103FC000196832234B430B49B3FBF1F31146506997
:103FD00010F4007F00D033B94B6913F4007F14BF95
:103FE000032000207047013BF1E700BF00040058A8
:103FF0005000002040420F000B4A136823F00703D3
:1040000043F002031360094B1A69012842F00402CD
:104010001A6105D130BF1A6922F004021A61704793
:1040200040BF20BF20BFF6E70004005800ED00E0CD
:104030004FF0B0431868C0F3404070474FF0B043B2
:104040001868C0F3802070474FF0B0431868C0F381
:10405000400070474FF0B042536823F47F4343EA77
:104060000023536070474FF0B0431868C0F34060BE
:10407000704700007FB54FF0B0432C4AD3F80831A9
:10408000C0F3031003F00F0352F82040284A52F8FF
:104090002330B4FBF3F4FFF77DFF264B054693E88E
:1040A0000700B5F5007F04AB03E9070010D0224BF1
:1040B0009C4218D303F5B70303F67F539C4229D9DA
:1040C00003F5741303F510639C4225D802230BE01B
:1040D0001A4B9C4207D91A4B9C421BD903F5370354
:1040E00003F5D853F0E7002304AA02EB830353F847
:1040F0000C4C144D2B6823F0070323432B60FDF772
:10410000E9F906462B6803F007039C4206D100201C
:1041100004B070BD0123E7E70024EAE7FDF7DAF910
:10412000801B0228EED90320F2E700BF48080108EF
:10413000E807010860030108C0CF6A00BFEA210157
:104140003F933402004000584FF0B04310B59A68D6
:10415000D96812F00C0205D00C2A4AD101F00303F1
:10416000012B50D14FF0B0412B480B6813F00803DE
:1041700006D00B6813F0080337D1D1F8941007E08C
:104180000C68240756BFD1F894300968C3F30323A1
:1041900050F82330002A0CBF184600204FF0B041E1
:1041A0008A6802F00C020C2A1ED1CA6802F00302CF
:1041B000022A2ED0032A06D10B68184813F4801F58
:1041C000174B18BF03464FF0B040C168C268C068C3
:1041D000C1F30621C2F30212400F4B4301320130FA
:1041E000B3FBF2F3B3FBF0F010BD0B68C3F30313A2
:1041F000CEE7042A0AD0082A05D11B6813F48013DD
:1042000004D10748CAE700231846C7E7034800233C
:10421000C4E7024BD7E700BF480801080024F400B8
:104220000048E80108B5FFF78FFF4FF0B043044A9C
:104230009B68C3F3031352F82330B0FBF3F008BDBF
:10424000E80701082DE9F0410446002855D04FF059
:10425000B0439E68DD680368990606F00C0605F019
:1042600003056BD51EB10C2E49D1012D47D1FFF7A7
:10427000EBFE10B1236A002B3FD04FF0B043A06A91
:104280001A68120756BFD3F894301B681B0903F055
:10429000F00398421ED9FFF7EDFE00282DD14FF014
:1042A000B042136843F0080313601368A16A23F057
:1042B000F0030B431360606AFFF7CCFEFFF7B2FF19
:1042C000AC4B1860AC4B1868FDF702F9002835D0EC
:1042D000BDE8F0814FF0B042136843F0080313606B
:1042E000136823F0F00303431360606AFFF7B2FE24
:1042F000A06AFFF7BFFE0028E0D00120E8E7226AAD
:104300004FF0B043002A54D01A6842F001021A60FC
:10431000FDF7E0F80746FFF797FE002842D04FF080
:10432000B042136843F0080313601368A16A23F0D6
:10433000F0030B431360606AFFF78CFE2368DB0712
:1043400048D423689F0700F1908023681D0740F13F
:10435000FC80A3694FF0B045002B00F0E380D5F856
:104360009430E16903F01002914200F0C68003F03E
:104370000302022AC1D0D80740F1B580D5F89430A5
:1043800023F00103C5F89430FDF7A4F80746D5F8EB
:104390009430990740F1A780FDF79CF8C31B112BBF
:1043A000F5D904E0FDF796F8C01B0228B3D9032025
:1043B0008EE71A6822F001021A60FDF78BF80746B3
:1043C000FFF742FE0028B9D0FDF784F8C01B022891
:1043D000F6D9ECE7082E03D00C2E09D1032D07D116
:1043E000FFF726FE0028ACD06368002BA9D184E734
:1043F0004FF0B043A1681A6822F480120A431A6091
:104400006268B2F5803F10D11A6842F480321A60B7
:10441000FDF760F80746FFF70BFE002891D1FDF786
:1044200059F8C01B6428F6D9C1E7B2F5041F04D1BE
:104430001A6842F400121A60E6E7196821F4803124
:104440001960196821F400111960002AE0D1FDF704
:1044500041F80746FFF7ECFD00283FF472AFFDF787
:1044600039F8C01B6428F5D9A1E7042E03D00C2E1F
:1044700012D1022D10D1FFF7E1FD18B12369002BF5
:104480003FF43BAF4FF0B0426169536823F0FE4305
:1044900043EA0163536058E722694FF0B04382B1A9
:1044A0001A6842F480721A60FDF714F80546FFF7A7
:1044B000C5FD0028E6D1FDF70DF8401B0228F6D90E
:1044C00075E71A6822F480721A60FDF703F8054652
:1044D000FFF7B4FD00283FF438AFFCF7FBFF401BAB
:1044E0000228F5D963E74FF0B042E169D2F8943081
:1044F00023F010030B43C2F894304FF0B045D5F8C9
:10450000943043F00103C5F89430FCF7E3FF07460D
:10451000D5F894309A0718D4FCF7DCFFC31B112B95
:10452000F6D944E7D5F8943023F00103C5F8943068
:10453000FCF7D0FF0746D5F894309B0705D5FCF76C
:10454000C9FFC31B112BF6D931E72368580753D590
:104550000A4D2B68D90513D4FFF7F4FCFCF7BAFF1A
:1045600007462B68DA050BD4FCF7B4FFC31B022BFC
:10457000F7D91CE750000020540000200004005828
:10458000E3684FF0B045002B58D023F08003052B93
:1045900002BFD5F8903043F00403C5F890304FF0D7
:1045A000B045FCF797FFD5F8903043F0010307467C
:1045B000C5F8903041F28838D5F890309B0705D483
:1045C000FCF788FFC31B4345F6D9F0E6E36823F008
:1045D0000403812B1BD1FCF77DFFD5F8903043F00D
:1045E0008003C5F8903007464FF0B04541F2883857
:1045F000D5F89030180504D5E06A00284AD100208B
:1046000066E6FCF767FFC01B4045F1D9CFE6FCF733
:1046100061FFD5F8903023F08003C5F8903007464D
:104620004FF0B04541F28838D5F890301905E3D500
:10463000FCF750FFC01B4045F6D9B8E6FCF74AFF2F
:10464000D5F8903023F080030746C5F8903041F24A
:104650008838D5F890301A0516D4FCF73BFFD5F80A
:10466000903023F00103C5F8903007464FF0B04872
:1046700041F28835D8F890309B07BDD5FCF72AFF6A
:10468000C31BAB42F6D992E6FCF724FFC01B4045A2
:10469000DFD98CE60C2E53D04FF0B04302281A68B5
:1046A00022F080721A6033D1FCF714FF0546FFF741
:1046B000DAFC38BBD4E90C314FF0B0420B43D06880
:1046C0002F4901400B43E16B0B43216C0B43616CA1
:1046D0000B43A16B43EA0123D360136843F080735B
:1046E0001360D36843F08053D360FCF7F3FE0446B5
:1046F000FFF7B9FC002882D1FCF7ECFE001B0A286A
:10470000F6D954E6FCF7E6FE401B0A28CFD94EE660
:10471000DA6822F00302DA60DA6822F0885222F4C2
:104720008032DA60FCF7D6FE0446FFF79CFC0028D6
:104730003FF465AFFCF7CEFE001B0A28F5D936E63C
:1047400001283FF4C5AD4FF0B043226BDB6803F0A6
:10475000030191427FF4D1AD616B03F070028A4294
:104760007FF4CBADA16B03F4FE42B2EB012F7FF4DB
:10477000C4AD626C03F0604393423FF440AFBCE5CC
:104780008C80C1112DE9F0410D46044610B901207D
:10479000BDE8F081744E336803F007038B4216D3F3
:1047A00023689A0727D54FF0B046A268B36823F074
:1047B000F0031343B360FCF78DFE0746B368DB03D9
:1047C00019D4FCF787FEC31B022BF7D911E033681D
:1047D00023F007030B433360FCF77CFE0746336886
:1047E00003F00703AB42DBD0FCF774FEC01B0228CA
:1047F000F5D90320CCE72368980616D54FF0B046CC
:104800006269D6F8083123F0F0031343C6F8083183
:10481000FCF760FE0746D6F80831990305D4FCF78B
:1048200059FEC31B022BF6D9E3E723685A0617D5B6
:104830004FF0B046A269D6F8083123F00F0343EADF
:104840001213C6F80831FCF745FE0746D6F80831C2
:10485000DB0305D4FCF73EFEC31B022BF6D9C8E7E9
:1048600023685E0713D54FF0B046E268B36823F4BF
:10487000E0631343B360FCF72DFE0746B36898036B
:1048800005D4FCF727FEC31B022BF7D9B1E7236839
:10489000190714D54FF0B0462269B36823F460536A
:1048A00043EAC203B360FCF715FE0746B3685A0338
:1048B00005D4FCF70FFEC31B022BF7D999E7236839
:1048C000DB070FD4284C236803F00703AB4237D82B
:1048D000FFF7A8FC254B1860254BBDE8F041186890
:1048E000FCF7F6BD6368022B1ED1FFF7A1FB002881
:1048F0003FF44DAF4FF0B0466268B36823F0030356
:104900001343B360FCF7E6FD41F288380746B3680D
:10491000626803F00C03B3EB820FD3D0FCF7DAFD2F
:10492000C01B4045F3D964E7032B02D1FFF79BFB83
:10493000DDE713B9FFF788FBD9E7FFF77FFBD6E781
:10494000236823F007032B432360FCF7C3FD0646CF
:10495000236803F00703AB42BAD0FCF7BBFD801B12
:104960000228F5D945E700BF00400058500000205C
:104970005400002008B5FFF755FC4FF0B043044A3F
:104980009B68C3F3022352F82330D84008BD00BF10
:104990002808010808B5FFF745FC4FF0B043044A6A
:1049A0009B68C3F3C22352F82330D84008BD00BF30
:1049B000280801084FF0B043D3F89000C0F340003E
:1049C00070474FF0B0410209D1F8883002F47F22DD
:1049D000000123EA020300F47F201843C1F8880095
:1049E00070474FF0B041020CD1F88830120423EA2E
:1049F000020343EA0040C1F88800704770B50568BB
:104A000015F48035044638D0FFF79CFAFCF762FDB8
:104A1000644E05463368DB0529D54FF0B043616B22
:104A2000D3F8902002F44072914214D0D3F8901041
:104A3000D3F8902042F48032C3F89020D3F890202D
:104A400021F4407022F480328D07C3F89020C3F81F
:104A5000900000F196804FF0B042616BD2F8903038
:104A600023F440730B43C2F89030002505E0FCF7B7
:104A700031FD401B0228CDD903252268D0070AD575
:104A80004FF0B0406168D0F8883023EA114389B212
:104A90000B43C0F8883091070AD54FF0B040A168A9
:104AA000D0F8883023EA114389B20B43C0F888302C
:104AB000930609D54FF0B0412069D1F8883023F42E
:104AC00040630343C1F88830960502D5206AFFF79A
:104AD00088FF2368580502D5606AFFF782FF2368C4
:104AE000190502D5A06AFFF77CFF23685A0602D594
:104AF0006069FFF766FF23681B0602D5A069FFF710
:104B000060FF2368DE0502D5E069FFF75AFF2168E0
:104B1000C80610D54FF0B042E068D2F8883023F4D0
:104B200040730343C2F88830B0F5807F02BFD3687A
:104B300043F08073D3600A040ED54FF0B042206B6F
:104B4000D2F8883023F040430343C2F8883018B9C4
:104B5000D36843F08073D3604B0410D54FF0B0425C
:104B6000E16AD2F8883023F040530B43B1F1005F83
:104B7000C2F8883003D1D36843F48033D360284629
:104B800070BDFCF7A7FC41F288360546FFF712FF1F
:104B900001283FF460AFFCF79DFC401BB042F5D903
:104BA0006AE700BF0004005830B590F82C30012BA4
:104BB0004FF0020222D0194B80F82D20CA24012583
:104BC00080F82C505C6253245C62B1F5807F046BEA
:104BD00016D19A6922F488529A615A6C24F0010421
:104BE00022F000425A640463DD650C4BFF225A62D6
:104BF0000123002280F82D3080F82C20104630BD93
:104C0000996921F408519961D96C24F0020421F0CA
:104C10000041D9640463DA65E7E700BF002800407B
:104C200070B50B4D036B6E6D1E40F207044603D545
:104C30000123EB65FCF7C6FDB30704D50223EB6542
:104C4000204600F0C5F9012384F82D3070BD00BF67
:104C50000028004038B50A4CE36823F02003E360E5
:104C6000FCF738FC0546E3689B0601D5002038BDFB
:104C7000FCF730FC401BB0F57A7FF4D90320F6E74F
:104C8000002800402DE9F041114DEC6814F040047B
:104C900007461AD1EB6843F08003EB60FCF71AFC7F
:104CA0004FF003080646EB685B0601D4032C02D1E3
:104CB0002046BDE8F081FCF70DFC801BB0F57A7F43
:104CC00084BF87F82D800324EDE70024F0E700BFC0
:104CD00000280040104BDA6822F0800210B5DA603C
:104CE0009A699206044606D4FFF7B4FF10B1032078
:104CF00084F82D0010BD9A6922F020029A61FFF716
:104D0000A9FF10B1032084F82D00034A936943F0F2
:104D100020039361EEE700BF0028004038B5044649
:104D2000002847D090F82D3003F0FF021BB980F81F
:104D30002C20FCF745F9204D022384F82D30CA239E
:104D40006B6253236B622046FFF79CFF70BBAB691D
:104D500023F08E6323F04003AB6121696368AA6985
:104D60000B431343A2691343AB61D4E9022343EA23
:104D700002432B61D4E90931EA680B4322F4F8526B
:104D80001343EB602046FFF7A5FF78B9D4E907137A
:104D9000AA690B4322F06042134362691343AB617B
:104DA000FF236B62012384F82D3038BD024BFF22B4
:104DB0005A62FAE70120F8E700280040002309289A
:104DC00003D840EA0310C0B270470A380133C0B2BA
:104DD000F5E700002DE9F04790F82C30012B05464F
:104DE0004FF0020067D0012385F82C304C4B85F83A
:104DF0002D00DE6806F44076B6F5807F76D04C69EB
:104E0000087891F8018091F802A091F82470002AA6
:104E100053D19A6912F0400208BFCA70FFF7CEFF63
:104E200081464046FFF7CAFF80465046FFF7C6FF5F
:104E300082463846FFF7C2FF0A6ACB78144344EA39
:104E4000835444EA0A0343EA094343EA082343EA52
:104E50000063334ACA205062532050628C6A8869CA
:104E6000B4F5807F946943D124F48854946101247B
:104E7000D465B6F5807F0ABFCB69136418435064CC
:104E8000274B4A681A672A6B42F001022A639A6923
:104E900042F488529A61234AD2F8803043F40033B6
:104EA000C2F880301E4BFF225A620020012385F891
:104EB0002D3085F82C00BDE8F087B4F1803F07D095
:104EC000B4F5000F04D09A6912F0400208BFCA700E
:104ED0000A6A144344EA0A0444EA0043C87843EAED
:104EE000082343EA805343EA0763B2E70023B0E7AD
:104EF00024F4085494610224D465B6F5807F0ABF77
:104F0000CB6993641843D064054B4A685A672A6B8F
:104F100042F002022A639A6942F40852BAE700BFDB
:104F2000002800400008005890F82C20012A034671
:104F30004FF0020012D00A4A83F82D00CA215162B4
:104F400053215162916941F020019161FF21516229
:104F50000020012283F82D2083F82C00704700BF29
:104F60000028004090F82C20012A03464FF0020050
:104F700019D00D4A83F82D00CA2151625321516284
:104F800091690A4841F080019161D0F8801041F4A4
:104F90008021C0F88010FF2151620020012283F897
:104FA0002D2083F82C00704700280040000800588E
:104FB000064B5A6D520610B5044603D54022DA65F9
:104FC000FCF702FC012384F82D3010BD00280040BE
:104FD0007047890001F1804101F531410A60704755
:104FE000890001F1804101F53141086870470000F6
:104FF000034AD2F8903043F40043C2F8903070472F
:1050000000040058034AD2F8903023F40043C2F859
:105010009030704700040058074B1A6822F0400295
:105020001A6040F441704FF4B85218605A601A6820
:1050300042F040021A6070470000015813B5044660
:10504000002842D0837903F0FF0213B94271FCF7C4
:105050002FF90223A3714FF0B043D3F8942022F428
:105060000042C3F894201A4A11681C224A43D20C09
:1050700064214A430192019AF2B90121A160FFF72C
:10508000B7FF144AD2F8903043F48053C2F89030FE
:10509000114B9A6842F400629A604FF400629A6180
:1050A00029B92068FFF7B8FF01232371A16001230C
:1050B000A371084602B010BD019A013A0192D3F8DB
:1050C000941011F48041D6D1D9E70121F1E700BF56
:1050D00050000020000800580004005813B5024694
:1050E000174804681C236343DB0C64246343154C9A
:1050F00001930346019898B901209060124C2170E9
:1051000019681C234B43DB0C64214B430D4901936D
:10511000019B6BB9012090600A4BDB6802B010BDA7
:10512000019801380190A0688007E3D50020E5E7E9
:10513000019B013B01938B68DB07E9D5ECE700BFDE
:1051400050000020000001580C00015837B50246FD
:10515000184804681C236343DB0C64246343164C27
:10516000019303460198A8B901209060134CFF25D4
:1051700025701C681C236343DB0C642463430E4CC2
:105180000193019B73B9012090600B4BDB680B709E
:1051900003B030BD019801380190A0688007E1D5C7
:1051A0000020E3E7019B013B0193A368DB07E8D5FF
:1051B000EBE700BF50000020000001580C00015830
:1051C0000F4B13B51A680F4C182353431B0D642261
:1051D0005343014601936269019B02F0040223B923
:1051E00002238B60012002B010BD019B013B0193A3
:1051F000606910F00200F6D0002AECD11046F2E708
:10520000500000200004005807B50379012B0FD18E
:105210000A4B1A68182353431B0C0193FFF7F2FE45
:10522000019B013B0193019B002BF9D1FFF7E0FEAD
:1052300003B05DF804EBFFF7C3BF00BF50000020D0
:10524000F8B51E468379012B154604460F46DAB29F
:105250002DD14379012B2AD0022342718371FFF7AC
:10526000D3FFFFF7CFFE0D212046FFF737FF390AA6
:105270002046FFF733FFF9B22046FFF72FFF2E44F9
:10528000B5420ED1FFF7B4FE2046FFF799FFA068A4
:1052900001230038A3714FF0000318BF0120637190
:1052A000F8BD15F8011B2046FFF718FFE8E70220BC
:1052B000F6E7F8B51E468379012B154604460F46DE
:1052C000DAB22FD14379012B2CD04271FFF79CFF2A
:1052D000FFF798FE1D212046FFF700FF390A204600
:1052E000FFF7FCFEF9B22046FFF7F8FE002120464A
:1052F000FFF7F4FE2E44B5420ED1FFF779FE2046AB
:10530000FFF75EFFA06801230038A3714FF0000390
:1053100018BF01206371F8BD29462046FFF716FF2C
:105320000135E8E70220F6E7F8B51F468379012B3F
:10533000154604460E46DAB22CD14379012B29D00A
:105340004271FFF761FF06F0EF03A3F184025342BD
:1053500053412371FFF756FE31462046FFF7BEFE4C
:105360002F44AF4210D1FFF743FE842E02D02046D7
:10537000FFF726FFA06801230038A3714FF0000358
:1053800018BF01206371F8BD15F8011B2046FFF717
:10539000A5FEE6E70220F6E7F8B51E468379012B65
:1053A000154604460F46DAB227D14379012B24D0A3
:1053B0004271FFF729FFFFF725FE0E212046FFF778
:1053C0008DFE39462046FFF789FE2E44B5420ED1A8
:1053D000FFF70EFE2046FFF7F3FEA068012300381A
:1053E000A3714FF0000318BF01206371F8BD15F8D9
:1053F000011B2046FFF772FEE8E70220F6E7F8B54A
:105400001E468379012B154604460F46DAB22BD18E
:105410004379012B28D04271FFF7F6FEFFF7F2FD2A
:105420001E212046FFF75AFE39462046FFF756FE5A
:1054300000212046FFF752FE2E44B5420ED1FFF761
:10544000D7FD2046FFF7BCFEA06801230038A371FA
:105450004FF0000318BF01206371F8BD29462046B4
:10546000FFF774FE0135E8E70220F6E7F8B51E46BF
:105470008379012B154604460F46DAB227D14379CA
:10548000012B24D04271FFF7BFFEFFF7BBFD394669
:105490002046FFF723FE00212046FFF71FFE2E4483
:1054A000B5420ED1FFF7A4FD2046FFF789FEA068A4
:1054B00001230038A3714FF0000318BF012063716E
:1054C000F8BD29462046FFF741FE0135E8E70220F6
:1054D000F6E737B50023ADF8043001AA0223122104
:1054E0000446FFF7C3FF9DF805309DF80450DA0726
:1054F00043EA052502D5204609F0A6FBAB0702D5F5
:10550000204609F0A7FB680702D5204609F0CCFB2E
:10551000290702D5204609F0CDFBEA0602D5204630
:1055200009F0CEFBAB0602D5204609F0B7FB6806B2
:1055300002D5204609F094FB290607D5EA05C5F3F4
:105540000021204648BF012109F090FBAB0502D5A0
:10555000204609F09BFB022301AA19462046FFF7CB
:10556000E3FE03B030BD026852E8003F23F0C00301
:1055700042E8003102680029F5D102F1080353E83E
:10558000003F23F4000302F1080C4CE8003100292D
:10559000F3D12023C0F884307047000010B50268B2
:1055A00052E8003F23F4907342E80031026800297A
:1055B000F5D10F4C02F1080353E8003F234002F1FC
:1055C000080C4CE800310029F4D1C36E012B07D13F
:1055D00052E8003F23F0100342E800310029F7D1E0
:1055E0002023C0F888300023C366036710BD00BFC6
:1055F000FEFFFFEFF8B504461346D4F88470202F61
:1056000043D161B35AB394F88020012A3DD0A06FF2
:10561000A4F85630012500262122C4F88C6084F8B5
:1056200080502165A4F85430C4F88420C8B1DFF854
:1056300060C02268C0F82CC0DFF858C0C0F830C085
:10564000DFF854C02832C0E90DC6FDF71DFF40B198
:105650001023C4F88C3084F88060C4F88470012072
:1056600012E0236840221A620023226884F8803006
:1056700002F1080353E8003F43F0800302F1080100
:1056800041E800300028F3D1F8BD0220FCE700BF5C
:105690009D560008E5560008F156000808B5034677
:1056A000806A1B681B6813F0200317D1A0F85630DE
:1056B000026802F1080353E8003F23F08003083238
:1056C00042E8003102680029F2D152E8003F43F07D
:1056D000400342E800310029F7D108BDFCF7B2F9D8
:1056E000FBE7704708B5806AFFF7FBFF08BD70470E
:1056F000806A0268D0F8843010B5D0F8884092688B
:10570000120606D5212B04D10023A0F85630FFF74E
:105710002AFF03689B685B0606D5222C04D1002370
:10572000A0F85E30FFF73AFFD0F88C3043F010035A
:10573000C0F88C30FFF7DBFF10BD08B5806A00238E
:10574000A0F85E30A0F85630FFF7D1FF08BD7047D3
:105750000368DA6919682DE9F04140F60F06324214
:105760009D68044610D1960640F1968001F020060F
:1057700005F080573E4300F08F80036F002B00F050
:105780008480BDE8F0411847A74EA8482E40084045
:10579000304300F08180D70709D5C80507D501201F
:1057A0001862D4F88C0040F00100C4F88C00970710
:1057B00009D5E80707D502201862D4F88C0040F01C
:1057C0000400C4F88C00570709D5E80707D5042062
:1057D0001862D4F88C0040F00200C4F88C0017075F
:1057E0000BD501F02000304307D008201862D4F810
:1057F0008C0040F00800C4F88C0016050AD548015A
:1058000008D54FF400601862D4F88C3043F02003C0
:10581000C4F88C30D4F88C30002B36D093060AD5DF
:1058200001F0200105F0805551EA050303D0236FF4
:105830000BB1204698472368D4F88C509B6805F03C
:10584000280503F040031D43204620D0FFF7A6FEA5
:10585000226893685F0615D502F1080353E8003FFC
:1058600023F0400302F1080040E800310029F3D1A1
:10587000E06F38B16E4B8363FDF780FE28B1E06FB7
:10588000836B7EE72046FFF732FFBDE8F081FFF72C
:105890002EFFC4F88C50F8E7E06E012840F08180BC
:1058A000D6067ED5C8067CD510221A629A685106A3
:1058B00047D5E26F11684A6892B2002AE5D0B4F881
:1058C0005C009042E1D9A4F85E200A6892062ED4CA
:1058D00053E8002F22F4807243E800210029F7D119
:1058E00003F1080252E8002F22F0010203F1080040
:1058F00040E800210029F3D103F1080252E8002F0B
:1059000022F0400203F1080040E800210029F3D111
:105910002022C4F88820E16653E8002F22F010020C
:1059200043E800210029F7D1E06FFDF7F2FDB4F85C
:105930005E30B4F85C10C91A89B22046FFF707FF41
:10594000A3E7B4F85E108AB2B4F85E1089B20029F9
:105950009BD0B4F85C10891A89B2002995D053E81D
:10596000002F22F4907243E800200028F7D1314D37
:1059700003F1080252E8002F2A4003F1080646E826
:1059800000200028F4D12022C4F888202067E06697
:1059900053E8002F22F0100243E800200028F7D13E
:1059A000CBE7D70209D56E0207D54FF48012204607
:1059B0001A62BDE8F04100F035BD10060BD501F0CC
:1059C000800005F40005284305D0636F002B3FF4E9
:1059D0005CAF2046D5E6570611D54E060FD553E8E5
:1059E000002F22F0400243E800210029F7D12023B4
:1059F000C4F8843061672046FCF724F845E71502B7
:105A000006D5480004D52046BDE8F04100F00CBDA5
:105A1000D3017FF53AAF0029BFF637AF2046BDE886
:105A2000F04100F000BD00BF0100001020010004A3
:105A30003B570008FEFFFFEF08B5026852E8003F41
:105A400023F4907342E8003103680029F5D103F193
:105A5000080252E8002F22F0010203F1080C4CE882
:105A600000210029F3D12022C0F88820C26E0167EE
:105A7000012A12D1C16653E8002F22F0100243E838
:105A800000210029F7D1DA69B0F85C10D20644BFD2
:105A900010221A62FFF75BFE08BDFBF7D9FFFBE798
:105AA000D0F888100268222913D1516AB0F860201A
:105AB0001140826D22F8021B8265B0F85E20013A27
:105AC00092B2A0F85E20B0F85E309BB22BB9FFF71F
:105AD000B3BF936943F0080393617047D0F888100F
